{
  "contractName": "Election",
  "abi": [
    {
      "inputs": [],
      "payable": false,
      "stateMutability": "nonpayable",
      "type": "constructor"
    },
    {
      "constant": true,
      "inputs": [
        {
          "internalType": "address",
          "name": "",
          "type": "address"
        }
      ],
      "name": "rewards",
      "outputs": [
        {
          "internalType": "uint256",
          "name": "",
          "type": "uint256"
        }
      ],
      "payable": false,
      "stateMutability": "view",
      "type": "function"
    },
    {
      "constant": true,
      "inputs": [
        {
          "internalType": "address",
          "name": "",
          "type": "address"
        }
      ],
      "name": "voters",
      "outputs": [
        {
          "internalType": "bool",
          "name": "",
          "type": "bool"
        }
      ],
      "payable": false,
      "stateMutability": "view",
      "type": "function"
    },
    {
      "constant": false,
      "inputs": [
        {
          "internalType": "uint256",
          "name": "id",
          "type": "uint256"
        }
      ],
      "name": "castVote",
      "outputs": [],
      "payable": false,
      "stateMutability": "nonpayable",
      "type": "function"
    },
    {
      "constant": true,
      "inputs": [],
      "name": "viewVote",
      "outputs": [
        {
          "internalType": "uint256[3]",
          "name": "",
          "type": "uint256[3]"
        }
      ],
      "payable": false,
      "stateMutability": "view",
      "type": "function"
    },
    {
      "constant": true,
      "inputs": [
        {
          "internalType": "address",
          "name": "_voter",
          "type": "address"
        }
      ],
      "name": "viewRewards",
      "outputs": [
        {
          "internalType": "uint256",
          "name": "",
          "type": "uint256"
        }
      ],
      "payable": false,
      "stateMutability": "view",
      "type": "function"
    }
  ],
  "bytecode": "0x608060405234801561001057600080fd5b5060008090505b600381101561004057600080826003811061002e57fe5b01819055508080600101915050610017565b50610422806100506000396000f3fe608060405234801561001057600080fd5b50600436106100575760003560e01c80630700037d1461005c5780633eb76b9c146100b4578063a3ec138d146100e2578063cf26b5a41461013e578063da40ef8014610184575b600080fd5b61009e6004803603602081101561007257600080fd5b81019080803573ffffffffffffffffffffffffffffffffffffffff1690602001909291905050506101dc565b6040518082815260200191505060405180910390f35b6100e0600480360360208110156100ca57600080fd5b81019080803590602001909291905050506101f4565b005b610124600480360360208110156100f857600080fd5b81019080803573ffffffffffffffffffffffffffffffffffffffff169060200190929190505050610317565b604051808215151515815260200191505060405180910390f35b610146610337565b6040518082600360200280838360005b83811015610171578082015181840152602081019050610156565b5050505090500191505060405180910390f35b6101c66004803603602081101561019a57600080fd5b81019080803573ffffffffffffffffffffffffffffffffffffffff169060200190929190505050610382565b6040518082815260200191505060405180910390f35b60046020528060005260406000206000915090505481565b600360003373ffffffffffffffffffffffffffffffffffffffff1673ffffffffffffffffffffffffffffffffffffffff16815260200190815260200160002060009054906101000a900460ff161561024b57600080fd5b6001600360003373ffffffffffffffffffffffffffffffffffffffff1673ffffffffffffffffffffffffffffffffffffffff16815260200190815260200160002060006101000a81548160ff0219169083151502179055506001600082600381106102b257fe5b016000828254019250508190555060006064905080600460003373ffffffffffffffffffffffffffffffffffffffff1673ffffffffffffffffffffffffffffffffffffffff168152602001908152602001600020600082825401925050819055505050565b60036020528060005260406000206000915054906101000a900460ff1681565b61033f6103cb565b6000600380602002604051908101604052809291908260038015610378576020028201915b815481526020019060010190808311610364575b5050505050905090565b6000600460008373ffffffffffffffffffffffffffffffffffffffff1673ffffffffffffffffffffffffffffffffffffffff168152602001908152602001600020549050919050565b604051806060016040528060039060208202803883398082019150509050509056fea265627a7a7231582064e72a2884a6582db5610d1322cbd3aa2e81d6012933439845ee5c6c196d2b2e64736f6c63430005100032",
  "source": "pragma solidity 0.5.16;\n\ncontract Election {\n    uint[3] private votes;\n    mapping(address => bool) public voters;\n    mapping(address => uint) public rewards; // Добавлен маппинг для наградных токенов\n\n    constructor() public {\n        for (uint i = 0; i < votes.length; i++) {\n            votes[i] = 0;\n        }\n    }\n\n    function castVote(uint id) public {\n        require(!voters[msg.sender]);\n        voters[msg.sender] = true;\n\n        votes[id] += 1;\n\n        // Наградить участника после проголосования\n        uint rewardAmount = 100; // Количество наградных токенов, которые вы хотите предоставить за голосование\n        rewards[msg.sender] += rewardAmount;\n    }\n\n    function viewVote() public view returns(uint[3] memory) {\n        return votes;\n    }\n\n    function viewRewards(address _voter) public view returns(uint) {\n        return rewards[_voter];\n    }\n}\n",
  "sourcePath": "/home/m.lazarev/maga/blockchain/voting-dapp/contracts/election.sol",
  "compiler": {
    "name": "solc",
    "version": "0.5.16+commit.9c3226ce.Emscripten.clang"
  },
  "schemaVersion": "3.4.13",
  "updatedAt": "2023-06-07T20:35:56.811Z",
  "devdoc": {
    "methods": {}
  },
  "userdoc": {
    "methods": {}
  }
}