{
  "contractName": "election",
  "abi": [
    {
      "inputs": [],
      "payable": false,
      "stateMutability": "nonpayable",
      "type": "constructor"
    },
    {
      "constant": true,
      "inputs": [
        {
          "internalType": "address",
          "name": "",
          "type": "address"
        }
      ],
      "name": "voters",
      "outputs": [
        {
          "internalType": "bool",
          "name": "",
          "type": "bool"
        }
      ],
      "payable": false,
      "stateMutability": "view",
      "type": "function"
    },
    {
      "constant": false,
      "inputs": [
        {
          "internalType": "uint256",
          "name": "id",
          "type": "uint256"
        }
      ],
      "name": "castVote",
      "outputs": [],
      "payable": false,
      "stateMutability": "nonpayable",
      "type": "function"
    },
    {
      "constant": true,
      "inputs": [],
      "name": "viewVote",
      "outputs": [
        {
          "internalType": "uint256[3]",
          "name": "",
          "type": "uint256[3]"
        }
      ],
      "payable": false,
      "stateMutability": "view",
      "type": "function"
    }
  ],
  "bytecode": "0x608060405234801561001057600080fd5b5060008090505b600381101561004057600080826003811061002e57fe5b01819055508080600101915050610017565b506102a7806100506000396000f3fe608060405234801561001057600080fd5b50600436106100415760003560e01c80633eb76b9c14610046578063a3ec138d14610074578063cf26b5a4146100d0575b600080fd5b6100726004803603602081101561005c57600080fd5b8101908080359060200190929190505050610116565b005b6100b66004803603602081101561008a57600080fd5b81019080803573ffffffffffffffffffffffffffffffffffffffff1690602001909291905050506101e5565b604051808215151515815260200191505060405180910390f35b6100d8610205565b6040518082600360200280838360005b838110156101035780820151818401526020810190506100e8565b5050505090500191505060405180910390f35b600360003373ffffffffffffffffffffffffffffffffffffffff1673ffffffffffffffffffffffffffffffffffffffff16815260200190815260200160002060009054906101000a900460ff161561016d57600080fd5b6001600360003373ffffffffffffffffffffffffffffffffffffffff1673ffffffffffffffffffffffffffffffffffffffff16815260200190815260200160002060006101000a81548160ff0219169083151502179055506001600082600381106101d457fe5b016000828254019250508190555050565b60036020528060005260406000206000915054906101000a900460ff1681565b61020d610250565b6000600380602002604051908101604052809291908260038015610246576020028201915b815481526020019060010190808311610232575b5050505050905090565b604051806060016040528060039060208202803883398082019150509050509056fea265627a7a72315820387ec659db9c1df1083b2533fa354c4d108d9724adae4574d36d52cd028777a864736f6c63430005100032",
  "source": "pragma solidity 0.5.16;\n\ncontract election {\n\tuint[3] private votes;\n\tmapping(address => bool) public voters;\n\n\tconstructor() public {\n        for (uint i = 0; i < votes.length; i++) {\n            votes[i] = 0;\n        }\n    }\n\t\n\tfunction castVote(uint id) public {\n\n\t\trequire(!voters[msg.sender]);\n\n\t\tvoters[msg.sender]=true;\t\t\n\t\t\n\t\tvotes[id] += 1;\n\t}\n\t\n\tfunction viewVote() public view returns(uint[3] memory) {\n\t\treturn(votes);\n\t}\n}\n",
  "sourcePath": "/home/m.lazarev/maga/blockchain/voting-dapp/contracts/election.sol",
  "compiler": {
    "name": "solc",
    "version": "0.5.16+commit.9c3226ce.Emscripten.clang"
  },
  "schemaVersion": "3.4.13",
  "updatedAt": "2023-06-07T20:35:58.160Z",
  "networkType": "ethereum",
  "devdoc": {
    "methods": {}
  },
  "userdoc": {
    "methods": {}
  }
}